{
	".deps/github/0xcert/ethereum-erc721/src/contracts/ownership/ownable.sol": {
		"Ownable": {
			"abi": [
				{
					"inputs": [],
					"stateMutability": "nonpayable",
					"type": "constructor"
				},
				{
					"anonymous": false,
					"inputs": [
						{
							"indexed": true,
							"internalType": "address",
							"name": "previousOwner",
							"type": "address"
						},
						{
							"indexed": true,
							"internalType": "address",
							"name": "newOwner",
							"type": "address"
						}
					],
					"name": "OwnershipTransferred",
					"type": "event"
				},
				{
					"inputs": [],
					"name": "CANNOT_TRANSFER_TO_ZERO_ADDRESS",
					"outputs": [
						{
							"internalType": "string",
							"name": "",
							"type": "string"
						}
					],
					"stateMutability": "view",
					"type": "function"
				},
				{
					"inputs": [],
					"name": "NOT_CURRENT_OWNER",
					"outputs": [
						{
							"internalType": "string",
							"name": "",
							"type": "string"
						}
					],
					"stateMutability": "view",
					"type": "function"
				},
				{
					"inputs": [],
					"name": "owner",
					"outputs": [
						{
							"internalType": "address",
							"name": "",
							"type": "address"
						}
					],
					"stateMutability": "view",
					"type": "function"
				},
				{
					"inputs": [
						{
							"internalType": "address",
							"name": "_newOwner",
							"type": "address"
						}
					],
					"name": "transferOwnership",
					"outputs": [],
					"stateMutability": "nonpayable",
					"type": "function"
				}
			],
			"devdoc": {
				"details": "The contract has an owner address, and provides basic authorization control whitch simplifies the implementation of user permissions. This contract is based on the source code at: https://github.com/OpenZeppelin/openzeppelin-solidity/blob/master/contracts/ownership/Ownable.sol",
				"events": {
					"OwnershipTransferred(address,address)": {
						"details": "An event which is triggered when the owner is changed.",
						"params": {
							"newOwner": "The address of the new owner.",
							"previousOwner": "The address of the previous owner."
						}
					}
				},
				"kind": "dev",
				"methods": {
					"constructor": {
						"details": "The constructor sets the original `owner` of the contract to the sender account."
					},
					"transferOwnership(address)": {
						"details": "Allows the current owner to transfer control of the contract to a newOwner.",
						"params": {
							"_newOwner": "The address to transfer ownership to."
						}
					}
				},
				"stateVariables": {
					"NOT_CURRENT_OWNER": {
						"details": "Error constants."
					},
					"owner": {
						"details": "Current owner address."
					}
				},
				"version": 1
			},
			"evm": {
				"assembly": "    /* \".deps/github/0xcert/ethereum-erc721/src/contracts/ownership/ownable.sol\":357:1612  contract Ownable... */\n  mstore(0x40, 0x80)\n    /* \".deps/github/0xcert/ethereum-erc721/src/contracts/ownership/ownable.sol\":1005:1050  constructor()... */\n  callvalue\n  dup1\n  iszero\n  tag_1\n  jumpi\n  0x00\n  dup1\n  revert\ntag_1:\n  pop\n    /* \".deps/github/0xcert/ethereum-erc721/src/contracts/ownership/ownable.sol\":1035:1045  msg.sender */\n  caller\n    /* \".deps/github/0xcert/ethereum-erc721/src/contracts/ownership/ownable.sol\":1027:1032  owner */\n  0x00\n  dup1\n    /* \".deps/github/0xcert/ethereum-erc721/src/contracts/ownership/ownable.sol\":1027:1045  owner = msg.sender */\n  0x0100\n  exp\n  dup2\n  sload\n  dup2\n  0xffffffffffffffffffffffffffffffffffffffff\n  mul\n  not\n  and\n  swap1\n  dup4\n  0xffffffffffffffffffffffffffffffffffffffff\n  and\n  mul\n  or\n  swap1\n  sstore\n  pop\n    /* \".deps/github/0xcert/ethereum-erc721/src/contracts/ownership/ownable.sol\":357:1612  contract Ownable... */\n  dataSize(sub_0)\n  dup1\n  dataOffset(sub_0)\n  0x00\n  codecopy\n  0x00\n  return\nstop\n\nsub_0: assembly {\n        /* \".deps/github/0xcert/ethereum-erc721/src/contracts/ownership/ownable.sol\":357:1612  contract Ownable... */\n      mstore(0x40, 0x80)\n      callvalue\n      dup1\n      iszero\n      tag_1\n      jumpi\n      0x00\n      dup1\n      revert\n    tag_1:\n      pop\n      jumpi(tag_2, lt(calldatasize, 0x04))\n      shr(0xe0, calldataload(0x00))\n      dup1\n      0x860d248a\n      eq\n      tag_3\n      jumpi\n      dup1\n      0x8da5cb5b\n      eq\n      tag_4\n      jumpi\n      dup1\n      0xf2fde38b\n      eq\n      tag_5\n      jumpi\n      dup1\n      0xf3fe3bc3\n      eq\n      tag_6\n      jumpi\n    tag_2:\n      0x00\n      dup1\n      revert\n        /* \".deps/github/0xcert/ethereum-erc721/src/contracts/ownership/ownable.sol\":473:538  string public constant CANNOT_TRANSFER_TO_ZERO_ADDRESS = \"018002\" */\n    tag_3:\n      tag_7\n      tag_8\n      jump\t// in\n    tag_7:\n      mload(0x40)\n      tag_9\n      swap2\n      swap1\n      tag_10\n      jump\t// in\n    tag_9:\n      mload(0x40)\n      dup1\n      swap2\n      sub\n      swap1\n      return\n        /* \".deps/github/0xcert/ethereum-erc721/src/contracts/ownership/ownable.sol\":588:608  address public owner */\n    tag_4:\n      tag_11\n      tag_12\n      jump\t// in\n    tag_11:\n      mload(0x40)\n      tag_13\n      swap2\n      swap1\n      tag_14\n      jump\t// in\n    tag_13:\n      mload(0x40)\n      dup1\n      swap2\n      sub\n      swap1\n      return\n        /* \".deps/github/0xcert/ethereum-erc721/src/contracts/ownership/ownable.sol\":1380:1609  function transferOwnership(... */\n    tag_5:\n      tag_15\n      0x04\n      dup1\n      calldatasize\n      sub\n      dup2\n      add\n      swap1\n      tag_16\n      swap2\n      swap1\n      tag_17\n      jump\t// in\n    tag_16:\n      tag_18\n      jump\t// in\n    tag_15:\n      stop\n        /* \".deps/github/0xcert/ethereum-erc721/src/contracts/ownership/ownable.sol\":418:469  string public constant NOT_CURRENT_OWNER = \"018001\" */\n    tag_6:\n      tag_19\n      tag_20\n      jump\t// in\n    tag_19:\n      mload(0x40)\n      tag_21\n      swap2\n      swap1\n      tag_10\n      jump\t// in\n    tag_21:\n      mload(0x40)\n      dup1\n      swap2\n      sub\n      swap1\n      return\n        /* \".deps/github/0xcert/ethereum-erc721/src/contracts/ownership/ownable.sol\":473:538  string public constant CANNOT_TRANSFER_TO_ZERO_ADDRESS = \"018002\" */\n    tag_8:\n      mload(0x40)\n      dup1\n      0x40\n      add\n      0x40\n      mstore\n      dup1\n      0x06\n      dup2\n      mstore\n      0x20\n      add\n      0x3031383030320000000000000000000000000000000000000000000000000000\n      dup2\n      mstore\n      pop\n      dup2\n      jump\t// out\n        /* \".deps/github/0xcert/ethereum-erc721/src/contracts/ownership/ownable.sol\":588:608  address public owner */\n    tag_12:\n      0x00\n      dup1\n      sload\n      swap1\n      0x0100\n      exp\n      swap1\n      div\n      0xffffffffffffffffffffffffffffffffffffffff\n      and\n      dup2\n      jump\t// out\n        /* \".deps/github/0xcert/ethereum-erc721/src/contracts/ownership/ownable.sol\":1380:1609  function transferOwnership(... */\n    tag_18:\n        /* \".deps/github/0xcert/ethereum-erc721/src/contracts/ownership/ownable.sol\":1181:1186  owner */\n      0x00\n      dup1\n      sload\n      swap1\n      0x0100\n      exp\n      swap1\n      div\n      0xffffffffffffffffffffffffffffffffffffffff\n      and\n        /* \".deps/github/0xcert/ethereum-erc721/src/contracts/ownership/ownable.sol\":1167:1186  msg.sender == owner */\n      0xffffffffffffffffffffffffffffffffffffffff\n      and\n        /* \".deps/github/0xcert/ethereum-erc721/src/contracts/ownership/ownable.sol\":1167:1177  msg.sender */\n      caller\n        /* \".deps/github/0xcert/ethereum-erc721/src/contracts/ownership/ownable.sol\":1167:1186  msg.sender == owner */\n      0xffffffffffffffffffffffffffffffffffffffff\n      and\n      eq\n        /* \".deps/github/0xcert/ethereum-erc721/src/contracts/ownership/ownable.sol\":1188:1205  NOT_CURRENT_OWNER */\n      mload(0x40)\n      dup1\n      0x40\n      add\n      0x40\n      mstore\n      dup1\n      0x06\n      dup2\n      mstore\n      0x20\n      add\n      0x3031383030310000000000000000000000000000000000000000000000000000\n      dup2\n      mstore\n      pop\n        /* \".deps/github/0xcert/ethereum-erc721/src/contracts/ownership/ownable.sol\":1159:1206  require(msg.sender == owner, NOT_CURRENT_OWNER) */\n      swap1\n      tag_23\n      jumpi\n      mload(0x40)\n      0x08c379a000000000000000000000000000000000000000000000000000000000\n      dup2\n      mstore\n      0x04\n      add\n      tag_24\n      swap2\n      swap1\n      tag_10\n      jump\t// in\n    tag_24:\n      mload(0x40)\n      dup1\n      swap2\n      sub\n      swap1\n      revert\n    tag_23:\n      pop\n        /* \".deps/github/0xcert/ethereum-erc721/src/contracts/ownership/ownable.sol\":1496:1497  0 */\n      0x00\n        /* \".deps/github/0xcert/ethereum-erc721/src/contracts/ownership/ownable.sol\":1475:1498  _newOwner != address(0) */\n      0xffffffffffffffffffffffffffffffffffffffff\n      and\n        /* \".deps/github/0xcert/ethereum-erc721/src/contracts/ownership/ownable.sol\":1475:1484  _newOwner */\n      dup2\n        /* \".deps/github/0xcert/ethereum-erc721/src/contracts/ownership/ownable.sol\":1475:1498  _newOwner != address(0) */\n      0xffffffffffffffffffffffffffffffffffffffff\n      and\n      eq\n      iszero\n        /* \".deps/github/0xcert/ethereum-erc721/src/contracts/ownership/ownable.sol\":1500:1531  CANNOT_TRANSFER_TO_ZERO_ADDRESS */\n      mload(0x40)\n      dup1\n      0x40\n      add\n      0x40\n      mstore\n      dup1\n      0x06\n      dup2\n      mstore\n      0x20\n      add\n      0x3031383030320000000000000000000000000000000000000000000000000000\n      dup2\n      mstore\n      pop\n        /* \".deps/github/0xcert/ethereum-erc721/src/contracts/ownership/ownable.sol\":1467:1532  require(_newOwner != address(0), CANNOT_TRANSFER_TO_ZERO_ADDRESS) */\n      swap1\n      tag_26\n      jumpi\n      mload(0x40)\n      0x08c379a000000000000000000000000000000000000000000000000000000000\n      dup2\n      mstore\n      0x04\n      add\n      tag_27\n      swap2\n      swap1\n      tag_10\n      jump\t// in\n    tag_27:\n      mload(0x40)\n      dup1\n      swap2\n      sub\n      swap1\n      revert\n    tag_26:\n      pop\n        /* \".deps/github/0xcert/ethereum-erc721/src/contracts/ownership/ownable.sol\":1571:1580  _newOwner */\n      dup1\n        /* \".deps/github/0xcert/ethereum-erc721/src/contracts/ownership/ownable.sol\":1543:1581  OwnershipTransferred(owner, _newOwner) */\n      0xffffffffffffffffffffffffffffffffffffffff\n      and\n        /* \".deps/github/0xcert/ethereum-erc721/src/contracts/ownership/ownable.sol\":1564:1569  owner */\n      0x00\n      dup1\n      sload\n      swap1\n      0x0100\n      exp\n      swap1\n      div\n      0xffffffffffffffffffffffffffffffffffffffff\n      and\n        /* \".deps/github/0xcert/ethereum-erc721/src/contracts/ownership/ownable.sol\":1543:1581  OwnershipTransferred(owner, _newOwner) */\n      0xffffffffffffffffffffffffffffffffffffffff\n      and\n      0x8be0079c531659141344cd1fd0a4f28419497f9722a3daafe3b4186f6b6457e0\n      mload(0x40)\n      mload(0x40)\n      dup1\n      swap2\n      sub\n      swap1\n      log3\n        /* \".deps/github/0xcert/ethereum-erc721/src/contracts/ownership/ownable.sol\":1595:1604  _newOwner */\n      dup1\n        /* \".deps/github/0xcert/ethereum-erc721/src/contracts/ownership/ownable.sol\":1587:1592  owner */\n      0x00\n      dup1\n        /* \".deps/github/0xcert/ethereum-erc721/src/contracts/ownership/ownable.sol\":1587:1604  owner = _newOwner */\n      0x0100\n      exp\n      dup2\n      sload\n      dup2\n      0xffffffffffffffffffffffffffffffffffffffff\n      mul\n      not\n      and\n      swap1\n      dup4\n      0xffffffffffffffffffffffffffffffffffffffff\n      and\n      mul\n      or\n      swap1\n      sstore\n      pop\n        /* \".deps/github/0xcert/ethereum-erc721/src/contracts/ownership/ownable.sol\":1380:1609  function transferOwnership(... */\n      pop\n      jump\t// out\n        /* \".deps/github/0xcert/ethereum-erc721/src/contracts/ownership/ownable.sol\":418:469  string public constant NOT_CURRENT_OWNER = \"018001\" */\n    tag_20:\n      mload(0x40)\n      dup1\n      0x40\n      add\n      0x40\n      mstore\n      dup1\n      0x06\n      dup2\n      mstore\n      0x20\n      add\n      0x3031383030310000000000000000000000000000000000000000000000000000\n      dup2\n      mstore\n      pop\n      dup2\n      jump\t// out\n        /* \"#utility.yul\":7:146   */\n    tag_29:\n        /* \"#utility.yul\":53:58   */\n      0x00\n        /* \"#utility.yul\":91:97   */\n      dup2\n        /* \"#utility.yul\":78:98   */\n      calldataload\n        /* \"#utility.yul\":69:98   */\n      swap1\n      pop\n        /* \"#utility.yul\":107:140   */\n      tag_31\n        /* \"#utility.yul\":134:139   */\n      dup2\n        /* \"#utility.yul\":107:140   */\n      tag_32\n      jump\t// in\n    tag_31:\n        /* \"#utility.yul\":7:146   */\n      swap3\n      swap2\n      pop\n      pop\n      jump\t// out\n        /* \"#utility.yul\":152:481   */\n    tag_17:\n        /* \"#utility.yul\":211:217   */\n      0x00\n        /* \"#utility.yul\":260:262   */\n      0x20\n        /* \"#utility.yul\":248:257   */\n      dup3\n        /* \"#utility.yul\":239:246   */\n      dup5\n        /* \"#utility.yul\":235:258   */\n      sub\n        /* \"#utility.yul\":231:263   */\n      slt\n        /* \"#utility.yul\":228:347   */\n      iszero\n      tag_34\n      jumpi\n        /* \"#utility.yul\":266:345   */\n      tag_35\n      tag_36\n      jump\t// in\n    tag_35:\n        /* \"#utility.yul\":228:347   */\n    tag_34:\n        /* \"#utility.yul\":386:387   */\n      0x00\n        /* \"#utility.yul\":411:464   */\n      tag_37\n        /* \"#utility.yul\":456:463   */\n      dup5\n        /* \"#utility.yul\":447:453   */\n      dup3\n        /* \"#utility.yul\":436:445   */\n      dup6\n        /* \"#utility.yul\":432:454   */\n      add\n        /* \"#utility.yul\":411:464   */\n      tag_29\n      jump\t// in\n    tag_37:\n        /* \"#utility.yul\":401:464   */\n      swap2\n      pop\n        /* \"#utility.yul\":357:474   */\n      pop\n        /* \"#utility.yul\":152:481   */\n      swap3\n      swap2\n      pop\n      pop\n      jump\t// out\n        /* \"#utility.yul\":487:605   */\n    tag_38:\n        /* \"#utility.yul\":574:598   */\n      tag_40\n        /* \"#utility.yul\":592:597   */\n      dup2\n        /* \"#utility.yul\":574:598   */\n      tag_41\n      jump\t// in\n    tag_40:\n        /* \"#utility.yul\":569:572   */\n      dup3\n        /* \"#utility.yul\":562:599   */\n      mstore\n        /* \"#utility.yul\":487:605   */\n      pop\n      pop\n      jump\t// out\n        /* \"#utility.yul\":611:975   */\n    tag_42:\n        /* \"#utility.yul\":699:702   */\n      0x00\n        /* \"#utility.yul\":727:766   */\n      tag_44\n        /* \"#utility.yul\":760:765   */\n      dup3\n        /* \"#utility.yul\":727:766   */\n      tag_45\n      jump\t// in\n    tag_44:\n        /* \"#utility.yul\":782:853   */\n      tag_46\n        /* \"#utility.yul\":846:852   */\n      dup2\n        /* \"#utility.yul\":841:844   */\n      dup6\n        /* \"#utility.yul\":782:853   */\n      tag_47\n      jump\t// in\n    tag_46:\n        /* \"#utility.yul\":775:853   */\n      swap4\n      pop\n        /* \"#utility.yul\":862:914   */\n      tag_48\n        /* \"#utility.yul\":907:913   */\n      dup2\n        /* \"#utility.yul\":902:905   */\n      dup6\n        /* \"#utility.yul\":895:899   */\n      0x20\n        /* \"#utility.yul\":888:893   */\n      dup7\n        /* \"#utility.yul\":884:900   */\n      add\n        /* \"#utility.yul\":862:914   */\n      tag_49\n      jump\t// in\n    tag_48:\n        /* \"#utility.yul\":939:968   */\n      tag_50\n        /* \"#utility.yul\":961:967   */\n      dup2\n        /* \"#utility.yul\":939:968   */\n      tag_51\n      jump\t// in\n    tag_50:\n        /* \"#utility.yul\":934:937   */\n      dup5\n        /* \"#utility.yul\":930:969   */\n      add\n        /* \"#utility.yul\":923:969   */\n      swap2\n      pop\n        /* \"#utility.yul\":703:975   */\n      pop\n        /* \"#utility.yul\":611:975   */\n      swap3\n      swap2\n      pop\n      pop\n      jump\t// out\n        /* \"#utility.yul\":981:1203   */\n    tag_14:\n        /* \"#utility.yul\":1074:1078   */\n      0x00\n        /* \"#utility.yul\":1112:1114   */\n      0x20\n        /* \"#utility.yul\":1101:1110   */\n      dup3\n        /* \"#utility.yul\":1097:1115   */\n      add\n        /* \"#utility.yul\":1089:1115   */\n      swap1\n      pop\n        /* \"#utility.yul\":1125:1196   */\n      tag_53\n        /* \"#utility.yul\":1193:1194   */\n      0x00\n        /* \"#utility.yul\":1182:1191   */\n      dup4\n        /* \"#utility.yul\":1178:1195   */\n      add\n        /* \"#utility.yul\":1169:1175   */\n      dup5\n        /* \"#utility.yul\":1125:1196   */\n      tag_38\n      jump\t// in\n    tag_53:\n        /* \"#utility.yul\":981:1203   */\n      swap3\n      swap2\n      pop\n      pop\n      jump\t// out\n        /* \"#utility.yul\":1209:1522   */\n    tag_10:\n        /* \"#utility.yul\":1322:1326   */\n      0x00\n        /* \"#utility.yul\":1360:1362   */\n      0x20\n        /* \"#utility.yul\":1349:1358   */\n      dup3\n        /* \"#utility.yul\":1345:1363   */\n      add\n        /* \"#utility.yul\":1337:1363   */\n      swap1\n      pop\n        /* \"#utility.yul\":1409:1418   */\n      dup2\n        /* \"#utility.yul\":1403:1407   */\n      dup2\n        /* \"#utility.yul\":1399:1419   */\n      sub\n        /* \"#utility.yul\":1395:1396   */\n      0x00\n        /* \"#utility.yul\":1384:1393   */\n      dup4\n        /* \"#utility.yul\":1380:1397   */\n      add\n        /* \"#utility.yul\":1373:1420   */\n      mstore\n        /* \"#utility.yul\":1437:1515   */\n      tag_55\n        /* \"#utility.yul\":1510:1514   */\n      dup2\n        /* \"#utility.yul\":1501:1507   */\n      dup5\n        /* \"#utility.yul\":1437:1515   */\n      tag_42\n      jump\t// in\n    tag_55:\n        /* \"#utility.yul\":1429:1515   */\n      swap1\n      pop\n        /* \"#utility.yul\":1209:1522   */\n      swap3\n      swap2\n      pop\n      pop\n      jump\t// out\n        /* \"#utility.yul\":1609:1708   */\n    tag_45:\n        /* \"#utility.yul\":1661:1667   */\n      0x00\n        /* \"#utility.yul\":1695:1700   */\n      dup2\n        /* \"#utility.yul\":1689:1701   */\n      mload\n        /* \"#utility.yul\":1679:1701   */\n      swap1\n      pop\n        /* \"#utility.yul\":1609:1708   */\n      swap2\n      swap1\n      pop\n      jump\t// out\n        /* \"#utility.yul\":1714:1883   */\n    tag_47:\n        /* \"#utility.yul\":1798:1809   */\n      0x00\n        /* \"#utility.yul\":1832:1838   */\n      dup3\n        /* \"#utility.yul\":1827:1830   */\n      dup3\n        /* \"#utility.yul\":1820:1839   */\n      mstore\n        /* \"#utility.yul\":1872:1876   */\n      0x20\n        /* \"#utility.yul\":1867:1870   */\n      dup3\n        /* \"#utility.yul\":1863:1877   */\n      add\n        /* \"#utility.yul\":1848:1877   */\n      swap1\n      pop\n        /* \"#utility.yul\":1714:1883   */\n      swap3\n      swap2\n      pop\n      pop\n      jump\t// out\n        /* \"#utility.yul\":1889:1985   */\n    tag_41:\n        /* \"#utility.yul\":1926:1933   */\n      0x00\n        /* \"#utility.yul\":1955:1979   */\n      tag_61\n        /* \"#utility.yul\":1973:1978   */\n      dup3\n        /* \"#utility.yul\":1955:1979   */\n      tag_62\n      jump\t// in\n    tag_61:\n        /* \"#utility.yul\":1944:1979   */\n      swap1\n      pop\n        /* \"#utility.yul\":1889:1985   */\n      swap2\n      swap1\n      pop\n      jump\t// out\n        /* \"#utility.yul\":1991:2117   */\n    tag_62:\n        /* \"#utility.yul\":2028:2035   */\n      0x00\n        /* \"#utility.yul\":2068:2110   */\n      0xffffffffffffffffffffffffffffffffffffffff\n        /* \"#utility.yul\":2061:2066   */\n      dup3\n        /* \"#utility.yul\":2057:2111   */\n      and\n        /* \"#utility.yul\":2046:2111   */\n      swap1\n      pop\n        /* \"#utility.yul\":1991:2117   */\n      swap2\n      swap1\n      pop\n      jump\t// out\n        /* \"#utility.yul\":2123:2430   */\n    tag_49:\n        /* \"#utility.yul\":2191:2192   */\n      0x00\n        /* \"#utility.yul\":2201:2314   */\n    tag_65:\n        /* \"#utility.yul\":2215:2221   */\n      dup4\n        /* \"#utility.yul\":2212:2213   */\n      dup2\n        /* \"#utility.yul\":2209:2222   */\n      lt\n        /* \"#utility.yul\":2201:2314   */\n      iszero\n      tag_67\n      jumpi\n        /* \"#utility.yul\":2300:2301   */\n      dup1\n        /* \"#utility.yul\":2295:2298   */\n      dup3\n        /* \"#utility.yul\":2291:2302   */\n      add\n        /* \"#utility.yul\":2285:2303   */\n      mload\n        /* \"#utility.yul\":2281:2282   */\n      dup2\n        /* \"#utility.yul\":2276:2279   */\n      dup5\n        /* \"#utility.yul\":2272:2283   */\n      add\n        /* \"#utility.yul\":2265:2304   */\n      mstore\n        /* \"#utility.yul\":2237:2239   */\n      0x20\n        /* \"#utility.yul\":2234:2235   */\n      dup2\n        /* \"#utility.yul\":2230:2240   */\n      add\n        /* \"#utility.yul\":2225:2240   */\n      swap1\n      pop\n        /* \"#utility.yul\":2201:2314   */\n      jump(tag_65)\n    tag_67:\n        /* \"#utility.yul\":2332:2338   */\n      dup4\n        /* \"#utility.yul\":2329:2330   */\n      dup2\n        /* \"#utility.yul\":2326:2339   */\n      gt\n        /* \"#utility.yul\":2323:2424   */\n      iszero\n      tag_68\n      jumpi\n        /* \"#utility.yul\":2412:2413   */\n      0x00\n        /* \"#utility.yul\":2403:2409   */\n      dup5\n        /* \"#utility.yul\":2398:2401   */\n      dup5\n        /* \"#utility.yul\":2394:2410   */\n      add\n        /* \"#utility.yul\":2387:2414   */\n      mstore\n        /* \"#utility.yul\":2323:2424   */\n    tag_68:\n        /* \"#utility.yul\":2172:2430   */\n      pop\n        /* \"#utility.yul\":2123:2430   */\n      pop\n      pop\n      pop\n      jump\t// out\n        /* \"#utility.yul\":2559:2676   */\n    tag_36:\n        /* \"#utility.yul\":2668:2669   */\n      0x00\n        /* \"#utility.yul\":2665:2666   */\n      dup1\n        /* \"#utility.yul\":2658:2670   */\n      revert\n        /* \"#utility.yul\":2682:2784   */\n    tag_51:\n        /* \"#utility.yul\":2723:2729   */\n      0x00\n        /* \"#utility.yul\":2774:2776   */\n      0x1f\n        /* \"#utility.yul\":2770:2777   */\n      not\n        /* \"#utility.yul\":2765:2767   */\n      0x1f\n        /* \"#utility.yul\":2758:2763   */\n      dup4\n        /* \"#utility.yul\":2754:2768   */\n      add\n        /* \"#utility.yul\":2750:2778   */\n      and\n        /* \"#utility.yul\":2740:2778   */\n      swap1\n      pop\n        /* \"#utility.yul\":2682:2784   */\n      swap2\n      swap1\n      pop\n      jump\t// out\n        /* \"#utility.yul\":2790:2912   */\n    tag_32:\n        /* \"#utility.yul\":2863:2887   */\n      tag_74\n        /* \"#utility.yul\":2881:2886   */\n      dup2\n        /* \"#utility.yul\":2863:2887   */\n      tag_41\n      jump\t// in\n    tag_74:\n        /* \"#utility.yul\":2856:2861   */\n      dup2\n        /* \"#utility.yul\":2853:2888   */\n      eq\n        /* \"#utility.yul\":2843:2906   */\n      tag_75\n      jumpi\n        /* \"#utility.yul\":2902:2903   */\n      0x00\n        /* \"#utility.yul\":2899:2900   */\n      dup1\n        /* \"#utility.yul\":2892:2904   */\n      revert\n        /* \"#utility.yul\":2843:2906   */\n    tag_75:\n        /* \"#utility.yul\":2790:2912   */\n      pop\n      jump\t// out\n\n    auxdata: 0xa2646970667358221220d85467f66f3cc66628d88d992b96f5fa74b6b382da8da782b8e322442b39de4264736f6c63430008070033\n}\n",
				"bytecode": {
					"linkReferences": {},
					"object": "608060405234801561001057600080fd5b50336000806101000a81548173ffffffffffffffffffffffffffffffffffffffff021916908373ffffffffffffffffffffffffffffffffffffffff160217905550610535806100606000396000f3fe608060405234801561001057600080fd5b506004361061004c5760003560e01c8063860d248a146100515780638da5cb5b1461006f578063f2fde38b1461008d578063f3fe3bc3146100a9575b600080fd5b6100596100c7565b604051610066919061042f565b60405180910390f35b610077610100565b6040516100849190610414565b60405180910390f35b6100a760048036038101906100a2919061039f565b610124565b005b6100b1610351565b6040516100be919061042f565b60405180910390f35b6040518060400160405280600681526020017f303138303032000000000000000000000000000000000000000000000000000081525081565b60008054906101000a900473ffffffffffffffffffffffffffffffffffffffff1681565b60008054906101000a900473ffffffffffffffffffffffffffffffffffffffff1673ffffffffffffffffffffffffffffffffffffffff163373ffffffffffffffffffffffffffffffffffffffff16146040518060400160405280600681526020017f3031383030310000000000000000000000000000000000000000000000000000815250906101ea576040517f08c379a00000000000000000000000000000000000000000000000000000000081526004016101e1919061042f565b60405180910390fd5b50600073ffffffffffffffffffffffffffffffffffffffff168173ffffffffffffffffffffffffffffffffffffffff1614156040518060400160405280600681526020017f303138303032000000000000000000000000000000000000000000000000000081525090610293576040517f08c379a000000000000000000000000000000000000000000000000000000000815260040161028a919061042f565b60405180910390fd5b508073ffffffffffffffffffffffffffffffffffffffff1660008054906101000a900473ffffffffffffffffffffffffffffffffffffffff1673ffffffffffffffffffffffffffffffffffffffff167f8be0079c531659141344cd1fd0a4f28419497f9722a3daafe3b4186f6b6457e060405160405180910390a3806000806101000a81548173ffffffffffffffffffffffffffffffffffffffff021916908373ffffffffffffffffffffffffffffffffffffffff16021790555050565b6040518060400160405280600681526020017f303138303031000000000000000000000000000000000000000000000000000081525081565b600081359050610399816104e8565b92915050565b6000602082840312156103b5576103b46104d2565b5b60006103c38482850161038a565b91505092915050565b6103d58161046d565b82525050565b60006103e682610451565b6103f0818561045c565b935061040081856020860161049f565b610409816104d7565b840191505092915050565b600060208201905061042960008301846103cc565b92915050565b6000602082019050818103600083015261044981846103db565b905092915050565b600081519050919050565b600082825260208201905092915050565b60006104788261047f565b9050919050565b600073ffffffffffffffffffffffffffffffffffffffff82169050919050565b60005b838110156104bd5780820151818401526020810190506104a2565b838111156104cc576000848401525b50505050565b600080fd5b6000601f19601f8301169050919050565b6104f18161046d565b81146104fc57600080fd5b5056fea2646970667358221220d85467f66f3cc66628d88d992b96f5fa74b6b382da8da782b8e322442b39de4264736f6c63430008070033",
					"opcodes": "PUSH1 0x80 PUSH1 0x40 MSTORE CALLVALUE DUP1 ISZERO PUSH2 0x10 JUMPI PUSH1 0x0 DUP1 REVERT JUMPDEST POP CALLER PUSH1 0x0 DUP1 PUSH2 0x100 EXP DUP2 SLOAD DUP2 PUSH20 0xFFFFFFFFFFFFFFFFFFFFFFFFFFFFFFFFFFFFFFFF MUL NOT AND SWAP1 DUP4 PUSH20 0xFFFFFFFFFFFFFFFFFFFFFFFFFFFFFFFFFFFFFFFF AND MUL OR SWAP1 SSTORE POP PUSH2 0x535 DUP1 PUSH2 0x60 PUSH1 0x0 CODECOPY PUSH1 0x0 RETURN INVALID PUSH1 0x80 PUSH1 0x40 MSTORE CALLVALUE DUP1 ISZERO PUSH2 0x10 JUMPI PUSH1 0x0 DUP1 REVERT JUMPDEST POP PUSH1 0x4 CALLDATASIZE LT PUSH2 0x4C JUMPI PUSH1 0x0 CALLDATALOAD PUSH1 0xE0 SHR DUP1 PUSH4 0x860D248A EQ PUSH2 0x51 JUMPI DUP1 PUSH4 0x8DA5CB5B EQ PUSH2 0x6F JUMPI DUP1 PUSH4 0xF2FDE38B EQ PUSH2 0x8D JUMPI DUP1 PUSH4 0xF3FE3BC3 EQ PUSH2 0xA9 JUMPI JUMPDEST PUSH1 0x0 DUP1 REVERT JUMPDEST PUSH2 0x59 PUSH2 0xC7 JUMP JUMPDEST PUSH1 0x40 MLOAD PUSH2 0x66 SWAP2 SWAP1 PUSH2 0x42F JUMP JUMPDEST PUSH1 0x40 MLOAD DUP1 SWAP2 SUB SWAP1 RETURN JUMPDEST PUSH2 0x77 PUSH2 0x100 JUMP JUMPDEST PUSH1 0x40 MLOAD PUSH2 0x84 SWAP2 SWAP1 PUSH2 0x414 JUMP JUMPDEST PUSH1 0x40 MLOAD DUP1 SWAP2 SUB SWAP1 RETURN JUMPDEST PUSH2 0xA7 PUSH1 0x4 DUP1 CALLDATASIZE SUB DUP2 ADD SWAP1 PUSH2 0xA2 SWAP2 SWAP1 PUSH2 0x39F JUMP JUMPDEST PUSH2 0x124 JUMP JUMPDEST STOP JUMPDEST PUSH2 0xB1 PUSH2 0x351 JUMP JUMPDEST PUSH1 0x40 MLOAD PUSH2 0xBE SWAP2 SWAP1 PUSH2 0x42F JUMP JUMPDEST PUSH1 0x40 MLOAD DUP1 SWAP2 SUB SWAP1 RETURN JUMPDEST PUSH1 0x40 MLOAD DUP1 PUSH1 0x40 ADD PUSH1 0x40 MSTORE DUP1 PUSH1 0x6 DUP2 MSTORE PUSH1 0x20 ADD PUSH32 0x3031383030320000000000000000000000000000000000000000000000000000 DUP2 MSTORE POP DUP2 JUMP JUMPDEST PUSH1 0x0 DUP1 SLOAD SWAP1 PUSH2 0x100 EXP SWAP1 DIV PUSH20 0xFFFFFFFFFFFFFFFFFFFFFFFFFFFFFFFFFFFFFFFF AND DUP2 JUMP JUMPDEST PUSH1 0x0 DUP1 SLOAD SWAP1 PUSH2 0x100 EXP SWAP1 DIV PUSH20 0xFFFFFFFFFFFFFFFFFFFFFFFFFFFFFFFFFFFFFFFF AND PUSH20 0xFFFFFFFFFFFFFFFFFFFFFFFFFFFFFFFFFFFFFFFF AND CALLER PUSH20 0xFFFFFFFFFFFFFFFFFFFFFFFFFFFFFFFFFFFFFFFF AND EQ PUSH1 0x40 MLOAD DUP1 PUSH1 0x40 ADD PUSH1 0x40 MSTORE DUP1 PUSH1 0x6 DUP2 MSTORE PUSH1 0x20 ADD PUSH32 0x3031383030310000000000000000000000000000000000000000000000000000 DUP2 MSTORE POP SWAP1 PUSH2 0x1EA JUMPI PUSH1 0x40 MLOAD PUSH32 0x8C379A000000000000000000000000000000000000000000000000000000000 DUP2 MSTORE PUSH1 0x4 ADD PUSH2 0x1E1 SWAP2 SWAP1 PUSH2 0x42F JUMP JUMPDEST PUSH1 0x40 MLOAD DUP1 SWAP2 SUB SWAP1 REVERT JUMPDEST POP PUSH1 0x0 PUSH20 0xFFFFFFFFFFFFFFFFFFFFFFFFFFFFFFFFFFFFFFFF AND DUP2 PUSH20 0xFFFFFFFFFFFFFFFFFFFFFFFFFFFFFFFFFFFFFFFF AND EQ ISZERO PUSH1 0x40 MLOAD DUP1 PUSH1 0x40 ADD PUSH1 0x40 MSTORE DUP1 PUSH1 0x6 DUP2 MSTORE PUSH1 0x20 ADD PUSH32 0x3031383030320000000000000000000000000000000000000000000000000000 DUP2 MSTORE POP SWAP1 PUSH2 0x293 JUMPI PUSH1 0x40 MLOAD PUSH32 0x8C379A000000000000000000000000000000000000000000000000000000000 DUP2 MSTORE PUSH1 0x4 ADD PUSH2 0x28A SWAP2 SWAP1 PUSH2 0x42F JUMP JUMPDEST PUSH1 0x40 MLOAD DUP1 SWAP2 SUB SWAP1 REVERT JUMPDEST POP DUP1 PUSH20 0xFFFFFFFFFFFFFFFFFFFFFFFFFFFFFFFFFFFFFFFF AND PUSH1 0x0 DUP1 SLOAD SWAP1 PUSH2 0x100 EXP SWAP1 DIV PUSH20 0xFFFFFFFFFFFFFFFFFFFFFFFFFFFFFFFFFFFFFFFF AND PUSH20 0xFFFFFFFFFFFFFFFFFFFFFFFFFFFFFFFFFFFFFFFF AND PUSH32 0x8BE0079C531659141344CD1FD0A4F28419497F9722A3DAAFE3B4186F6B6457E0 PUSH1 0x40 MLOAD PUSH1 0x40 MLOAD DUP1 SWAP2 SUB SWAP1 LOG3 DUP1 PUSH1 0x0 DUP1 PUSH2 0x100 EXP DUP2 SLOAD DUP2 PUSH20 0xFFFFFFFFFFFFFFFFFFFFFFFFFFFFFFFFFFFFFFFF MUL NOT AND SWAP1 DUP4 PUSH20 0xFFFFFFFFFFFFFFFFFFFFFFFFFFFFFFFFFFFFFFFF AND MUL OR SWAP1 SSTORE POP POP JUMP JUMPDEST PUSH1 0x40 MLOAD DUP1 PUSH1 0x40 ADD PUSH1 0x40 MSTORE DUP1 PUSH1 0x6 DUP2 MSTORE PUSH1 0x20 ADD PUSH32 0x3031383030310000000000000000000000000000000000000000000000000000 DUP2 MSTORE POP DUP2 JUMP JUMPDEST PUSH1 0x0 DUP2 CALLDATALOAD SWAP1 POP PUSH2 0x399 DUP2 PUSH2 0x4E8 JUMP JUMPDEST SWAP3 SWAP2 POP POP JUMP JUMPDEST PUSH1 0x0 PUSH1 0x20 DUP3 DUP5 SUB SLT ISZERO PUSH2 0x3B5 JUMPI PUSH2 0x3B4 PUSH2 0x4D2 JUMP JUMPDEST JUMPDEST PUSH1 0x0 PUSH2 0x3C3 DUP5 DUP3 DUP6 ADD PUSH2 0x38A JUMP JUMPDEST SWAP2 POP POP SWAP3 SWAP2 POP POP JUMP JUMPDEST PUSH2 0x3D5 DUP2 PUSH2 0x46D JUMP JUMPDEST DUP3 MSTORE POP POP JUMP JUMPDEST PUSH1 0x0 PUSH2 0x3E6 DUP3 PUSH2 0x451 JUMP JUMPDEST PUSH2 0x3F0 DUP2 DUP6 PUSH2 0x45C JUMP JUMPDEST SWAP4 POP PUSH2 0x400 DUP2 DUP6 PUSH1 0x20 DUP7 ADD PUSH2 0x49F JUMP JUMPDEST PUSH2 0x409 DUP2 PUSH2 0x4D7 JUMP JUMPDEST DUP5 ADD SWAP2 POP POP SWAP3 SWAP2 POP POP JUMP JUMPDEST PUSH1 0x0 PUSH1 0x20 DUP3 ADD SWAP1 POP PUSH2 0x429 PUSH1 0x0 DUP4 ADD DUP5 PUSH2 0x3CC JUMP JUMPDEST SWAP3 SWAP2 POP POP JUMP JUMPDEST PUSH1 0x0 PUSH1 0x20 DUP3 ADD SWAP1 POP DUP2 DUP2 SUB PUSH1 0x0 DUP4 ADD MSTORE PUSH2 0x449 DUP2 DUP5 PUSH2 0x3DB JUMP JUMPDEST SWAP1 POP SWAP3 SWAP2 POP POP JUMP JUMPDEST PUSH1 0x0 DUP2 MLOAD SWAP1 POP SWAP2 SWAP1 POP JUMP JUMPDEST PUSH1 0x0 DUP3 DUP3 MSTORE PUSH1 0x20 DUP3 ADD SWAP1 POP SWAP3 SWAP2 POP POP JUMP JUMPDEST PUSH1 0x0 PUSH2 0x478 DUP3 PUSH2 0x47F JUMP JUMPDEST SWAP1 POP SWAP2 SWAP1 POP JUMP JUMPDEST PUSH1 0x0 PUSH20 0xFFFFFFFFFFFFFFFFFFFFFFFFFFFFFFFFFFFFFFFF DUP3 AND SWAP1 POP SWAP2 SWAP1 POP JUMP JUMPDEST PUSH1 0x0 JUMPDEST DUP4 DUP2 LT ISZERO PUSH2 0x4BD JUMPI DUP1 DUP3 ADD MLOAD DUP2 DUP5 ADD MSTORE PUSH1 0x20 DUP2 ADD SWAP1 POP PUSH2 0x4A2 JUMP JUMPDEST DUP4 DUP2 GT ISZERO PUSH2 0x4CC JUMPI PUSH1 0x0 DUP5 DUP5 ADD MSTORE JUMPDEST POP POP POP POP JUMP JUMPDEST PUSH1 0x0 DUP1 REVERT JUMPDEST PUSH1 0x0 PUSH1 0x1F NOT PUSH1 0x1F DUP4 ADD AND SWAP1 POP SWAP2 SWAP1 POP JUMP JUMPDEST PUSH2 0x4F1 DUP2 PUSH2 0x46D JUMP JUMPDEST DUP2 EQ PUSH2 0x4FC JUMPI PUSH1 0x0 DUP1 REVERT JUMPDEST POP JUMP INVALID LOG2 PUSH5 0x6970667358 0x22 SLT KECCAK256 0xD8 SLOAD PUSH8 0xF66F3CC66628D88D SWAP10 0x2B SWAP7 CREATE2 STATICCALL PUSH21 0xB6B382DA8DA782B8E322442B39DE4264736F6C6343 STOP ADDMOD SMOD STOP CALLER "
				},
				"gasEstimates": {
					"creation": {
						"codeDepositCost": "266600",
						"executionCost": "24572",
						"totalCost": "291172"
					},
					"external": {
						"CANNOT_TRANSFER_TO_ZERO_ADDRESS()": "infinite",
						"NOT_CURRENT_OWNER()": "infinite",
						"owner()": "2511",
						"transferOwnership(address)": "infinite"
					}
				},
				"methodIdentifiers": {
					"CANNOT_TRANSFER_TO_ZERO_ADDRESS()": "860d248a",
					"NOT_CURRENT_OWNER()": "f3fe3bc3",
					"owner()": "8da5cb5b",
					"transferOwnership(address)": "f2fde38b"
				}
			},
			"storageLayout": {
				"storage": [
					{
						"astId": 12,
						"contract": ".deps/github/0xcert/ethereum-erc721/src/contracts/ownership/ownable.sol:Ownable",
						"label": "owner",
						"offset": 0,
						"slot": "0",
						"type": "t_address"
					}
				],
				"types": {
					"t_address": {
						"encoding": "inplace",
						"label": "address",
						"numberOfBytes": "20"
					}
				}
			},
			"userdoc": {
				"kind": "user",
				"methods": {},
				"version": 1
			}
		}
	}
}